{
  "contractName": "GasExpressPool",
  "abi": [
    {
      "inputs": [],
      "stateMutability": "nonpayable",
      "type": "constructor"
    },
    {
      "anonymous": false,
      "inputs": [
        {
          "indexed": true,
          "internalType": "address",
          "name": "previousOwner",
          "type": "address"
        },
        {
          "indexed": true,
          "internalType": "address",
          "name": "newOwner",
          "type": "address"
        }
      ],
      "name": "OwnershipTransferred",
      "type": "event"
    },
    {
      "inputs": [],
      "name": "CYCLE_LENGTH",
      "outputs": [
        {
          "internalType": "uint256",
          "name": "",
          "type": "uint256"
        }
      ],
      "stateMutability": "view",
      "type": "function",
      "constant": true
    },
    {
      "inputs": [],
      "name": "DAI_ADDR",
      "outputs": [
        {
          "internalType": "address",
          "name": "",
          "type": "address"
        }
      ],
      "stateMutability": "view",
      "type": "function",
      "constant": true
    },
    {
      "inputs": [],
      "name": "FACTORY_ADDR",
      "outputs": [
        {
          "internalType": "address",
          "name": "",
          "type": "address"
        }
      ],
      "stateMutability": "view",
      "type": "function",
      "constant": true
    },
    {
      "inputs": [],
      "name": "REWARD_PER_CYCLE",
      "outputs": [
        {
          "internalType": "uint256",
          "name": "",
          "type": "uint256"
        }
      ],
      "stateMutability": "view",
      "type": "function",
      "constant": true
    },
    {
      "inputs": [],
      "name": "REWARD_TOKEN_ADDR",
      "outputs": [
        {
          "internalType": "address",
          "name": "",
          "type": "address"
        }
      ],
      "stateMutability": "view",
      "type": "function",
      "constant": true
    },
    {
      "inputs": [],
      "name": "ROUTER_ADDR",
      "outputs": [
        {
          "internalType": "address",
          "name": "",
          "type": "address"
        }
      ],
      "stateMutability": "view",
      "type": "function",
      "constant": true
    },
    {
      "inputs": [],
      "name": "WETH_ADDR",
      "outputs": [
        {
          "internalType": "address",
          "name": "",
          "type": "address"
        }
      ],
      "stateMutability": "view",
      "type": "function",
      "constant": true
    },
    {
      "inputs": [],
      "name": "currentCycleStartingTime",
      "outputs": [
        {
          "internalType": "uint256",
          "name": "",
          "type": "uint256"
        }
      ],
      "stateMutability": "view",
      "type": "function",
      "constant": true
    },
    {
      "inputs": [],
      "name": "owner",
      "outputs": [
        {
          "internalType": "address",
          "name": "",
          "type": "address"
        }
      ],
      "stateMutability": "view",
      "type": "function",
      "constant": true
    },
    {
      "inputs": [],
      "name": "renounceOwnership",
      "outputs": [],
      "stateMutability": "nonpayable",
      "type": "function"
    },
    {
      "inputs": [],
      "name": "rewardPerShare",
      "outputs": [
        {
          "internalType": "uint256",
          "name": "",
          "type": "uint256"
        }
      ],
      "stateMutability": "view",
      "type": "function",
      "constant": true
    },
    {
      "inputs": [
        {
          "internalType": "address",
          "name": "",
          "type": "address"
        }
      ],
      "name": "rewards",
      "outputs": [
        {
          "internalType": "uint256",
          "name": "",
          "type": "uint256"
        }
      ],
      "stateMutability": "view",
      "type": "function",
      "constant": true
    },
    {
      "inputs": [
        {
          "internalType": "address",
          "name": "",
          "type": "address"
        }
      ],
      "name": "totalGas",
      "outputs": [
        {
          "internalType": "uint256",
          "name": "",
          "type": "uint256"
        }
      ],
      "stateMutability": "view",
      "type": "function",
      "constant": true
    },
    {
      "inputs": [],
      "name": "totalSharesPerCycle",
      "outputs": [
        {
          "internalType": "uint256",
          "name": "",
          "type": "uint256"
        }
      ],
      "stateMutability": "view",
      "type": "function",
      "constant": true
    },
    {
      "inputs": [
        {
          "internalType": "uint256",
          "name": "",
          "type": "uint256"
        }
      ],
      "name": "traderSig",
      "outputs": [
        {
          "internalType": "bytes8",
          "name": "",
          "type": "bytes8"
        }
      ],
      "stateMutability": "view",
      "type": "function",
      "constant": true
    },
    {
      "inputs": [
        {
          "internalType": "address",
          "name": "newOwner",
          "type": "address"
        }
      ],
      "name": "transferOwnership",
      "outputs": [],
      "stateMutability": "nonpayable",
      "type": "function"
    },
    {
      "inputs": [],
      "name": "getPoolInfo",
      "outputs": [
        {
          "internalType": "uint256",
          "name": "",
          "type": "uint256"
        },
        {
          "internalType": "uint256",
          "name": "",
          "type": "uint256"
        }
      ],
      "stateMutability": "view",
      "type": "function",
      "constant": true
    },
    {
      "inputs": [],
      "name": "deposit",
      "outputs": [],
      "stateMutability": "payable",
      "type": "function",
      "payable": true
    },
    {
      "inputs": [
        {
          "internalType": "uint256",
          "name": "idx",
          "type": "uint256"
        },
        {
          "internalType": "uint256",
          "name": "value",
          "type": "uint256"
        },
        {
          "internalType": "bool",
          "name": "farming",
          "type": "bool"
        }
      ],
      "name": "refund",
      "outputs": [],
      "stateMutability": "nonpayable",
      "type": "function"
    },
    {
      "inputs": [],
      "name": "redeemRewards",
      "outputs": [
        {
          "internalType": "uint256",
          "name": "",
          "type": "uint256"
        }
      ],
      "stateMutability": "nonpayable",
      "type": "function"
    },
    {
      "inputs": [
        {
          "internalType": "bytes",
          "name": "data",
          "type": "bytes"
        }
      ],
      "name": "parseTraderData",
      "outputs": [
        {
          "internalType": "bytes",
          "name": "",
          "type": "bytes"
        },
        {
          "internalType": "uint8",
          "name": "",
          "type": "uint8"
        },
        {
          "internalType": "address[]",
          "name": "",
          "type": "address[]"
        },
        {
          "internalType": "uint256[]",
          "name": "",
          "type": "uint256[]"
        },
        {
          "internalType": "uint8[]",
          "name": "",
          "type": "uint8[]"
        },
        {
          "internalType": "address[]",
          "name": "",
          "type": "address[]"
        },
        {
          "internalType": "uint16",
          "name": "",
          "type": "uint16"
        }
      ],
      "stateMutability": "nonpayable",
      "type": "function"
    },
    {
      "inputs": [
        {
          "internalType": "bytes",
          "name": "data",
          "type": "bytes"
        }
      ],
      "name": "execute",
      "outputs": [],
      "stateMutability": "nonpayable",
      "type": "function"
    },
    {
      "inputs": [],
      "name": "updateCycle",
      "outputs": [],
      "stateMutability": "nonpayable",
      "type": "function"
    },
    {
      "inputs": [
        {
          "internalType": "address",
          "name": "tokenAddr",
          "type": "address"
        }
      ],
      "name": "withdrawGasFees",
      "outputs": [],
      "stateMutability": "nonpayable",
      "type": "function"
    }
  ],
  "bytecode": "0x6080604052606460015534801561001557600080fd5b5060006100296001600160e01b0361007c16565b600080546001600160a01b0319166001600160a01b0383169081178255604051929350917f8be0079c531659141344cd1fd0a4f28419497f9722a3daafe3b4186f6b6457e0908290a35042600355610080565b3390565b6128eb8061008f6000396000f3fe60806040526004361061018b5760003560e01c8063905f122d116100d6578063d0e30db01161007f578063dc75ba8911610059578063dc75ba89146103dc578063f0fc4ec1146103f1578063f2fde38b146104065761018b565b8063d0e30db01461039f578063d6b457b9146103a7578063d95393eb146103c75761018b565b8063a8fcd07c116100b0578063a8fcd07c14610360578063b13e619614610375578063c65af6221461038a5761018b565b8063905f122d146103165780639c2cc24b146103365780639cb3af4e1461034b5761018b565b80634c47c6cd1161013857806376fe30381161011257806376fe3038146102bf57806382dfc5f7146102ec5780638da5cb5b146103015761018b565b80634c47c6cd1461026757806360246c8814610287578063715018a6146102aa5761018b565b806315e40c4a1161016957806315e40c4a1461020a5780633edc7d851461021f578063446a2ec8146102525761018b565b80630700037d1461019057806309c5eabe146101c6578063134d67e5146101e8575b600080fd5b34801561019c57600080fd5b506101b06101ab366004611e23565b610426565b6040516101bd91906127f1565b60405180910390f35b3480156101d257600080fd5b506101e66101e1366004611efe565b610438565b005b3480156101f457600080fd5b506101fd610839565b6040516101bd91906122a5565b34801561021657600080fd5b506101b0610851565b34801561022b57600080fd5b5061023f61023a366004611f68565b610857565b6040516101bd97969594939291906122ff565b34801561025e57600080fd5b506101b0610a30565b34801561027357600080fd5b506101b0610282366004611e23565b610a36565b34801561029357600080fd5b5061029c610a48565b6040516101bd929190612836565b3480156102b657600080fd5b506101e6610a4f565b3480156102cb57600080fd5b506102df6102da366004612046565b610ae6565b6040516101bd91906122d2565b3480156102f857600080fd5b506101fd610b1a565b34801561030d57600080fd5b506101fd610b32565b34801561032257600080fd5b506101e661033136600461205e565b610b42565b34801561034257600080fd5b506101fd610c5d565b34801561035757600080fd5b506101b0610c75565b34801561036c57600080fd5b506101b0610c83565b34801561038157600080fd5b506101fd610c89565b34801561039657600080fd5b506101e6610ca1565b6101e6610d1e565b3480156103b357600080fd5b506101e66103c2366004611e23565b610de4565b3480156103d357600080fd5b506101fd610fc4565b3480156103e857600080fd5b506101b0610fdc565b3480156103fd57600080fd5b506101b0610fe1565b34801561041257600080fd5b506101e6610421366004611e23565b6110ab565b60066020526000908152604090205481565b610440611179565b6000546001600160a01b039081169116146104765760405162461bcd60e51b815260040161046d906126f1565b60405180910390fd5b60608060006104ba85858080601f01602080910402602001604051908101604052809392919081815260200183838082843760009201919091525061117d92505050565b925092509250642e90edd0008161ffff1611156104e95760405162461bcd60e51b815260040161046d906126ba565b6000805b84518160ff16101561057e57600580546000919060ff841690811061050e57fe5b90600052602060002090600491828204019190066008029054906101000a900460c01b6001600160c01b031916141561054657610576565b610573858260ff168151811061055857fe5b6020026020010151602001518361135890919063ffffffff16565b91505b6001016104ed565b5060006105a585518461ffff168660018151811061059857fe5b6020026020010151611386565b90506105f38160046000876000815181106105bc57fe5b60200260200101516001600160a01b03166001600160a01b031681526020019081526020016000205461135890919063ffffffff16565b600460008660008151811061060457fe5b60200260200101516001600160a01b03166001600160a01b0316815260200190815260200160002081905550600061063c8584611484565b90508060005b87518160ff16101561080b57600580546000919060ff841690811061066357fe5b90600052602060002090600491828204019190066008029054906101000a900460c01b6001600160c01b031916141561069b57610803565b60058160ff16815481106106ab57fe5b90600052602060002090600491828204019190066008029054906101000a900460c01b6001600160c01b031916888260ff16815181106106e757fe5b602002602001015160000151898360ff168151811061070257fe5b6020026020010151602001518a8460ff168151811061071d57fe5b602002602001015160400151600760009054906101000a900460ff1660405160200161074c94939291906121db565b604051602081830303815290604052805190602001206001600160c01b031916146107895760405162461bcd60e51b815260040161046d90612524565b6107b9888260ff168151811061079b57fe5b60200260200101518685856001600580549050038660ff1614611734565b915060ff8116610803576107d3828563ffffffff61189b16565b9250610800886000815181106107e557fe5b6020026020010151602001518661189b90919063ffffffff16565b94505b600101610642565b5061081860056000611dbd565b50506007805460ff8082166001011660ff1990911617905550505050505050565b737a250d5630b4cf539739df2c5dacb4c659f2488d81565b60035481565b6060600060608060608060008061086f8960006118dd565b9050606080600061087f8c61117d565b9250925092506060835167ffffffffffffffff8111801561089f57600080fd5b506040519080825280602002602001820160405280156108c9578160200160208202803683370190505b5090506060845167ffffffffffffffff811180156108e657600080fd5b50604051908082528060200260200182016040528015610910578160200160208202803683370190505b5090506060855167ffffffffffffffff8111801561092d57600080fd5b50604051908082528060200260200182016040528015610957578160200160208202803683370190505b50905060005b8651811015610a185786818151811061097257fe5b60200260200101516000015184828151811061098a57fe5b60200260200101906001600160a01b031690816001600160a01b0316815250508681815181106109b657fe5b6020026020010151602001518382815181106109ce57fe5b6020026020010181815250508681815181106109e657fe5b6020026020010151604001518282815181106109fe57fe5b60ff9092166020928302919091019091015260010161095d565b509d9e959d919c509a50985090965094509092505050565b60015481565b60046020526000908152604090205481565b6005544791565b610a57611179565b6000546001600160a01b03908116911614610a845760405162461bcd60e51b815260040161046d906126f1565b600080546040516001600160a01b03909116907f8be0079c531659141344cd1fd0a4f28419497f9722a3daafe3b4186f6b6457e0908390a3600080547fffffffffffffffffffffffff0000000000000000000000000000000000000000169055565b60058181548110610af357fe5b9060005260206000209060049182820401919006600802915054906101000a900460c01b81565b73c778417e063141139fce010982780140aa0cd5ab81565b6000546001600160a01b03165b90565b600754604051610b61913391859160009160ff9091169060200161215b565b604051602081830303815290604052805190602001206001600160c01b03191660058481548110610b8e57fe5b90600052602060002090600491828204019190066008029054906101000a900460c01b6001600160c01b03191614610bd85760405162461bcd60e51b815260040161046d90612524565b600060c01b60058481548110610bea57fe5b90600052602060002090600491828204019190066008026101000a81548167ffffffffffffffff021916908360c01c0217905550336001600160a01b03166108fc839081150290604051600060405180830381858888f19350505050158015610c57573d6000803e3d6000fd5b50505050565b734aacb7f0ba0a5cff9a8a5e8c0f24626ee9fda4a681565b69d3c21bcecceda100000081565b60025481565b735c69bee701ef814a2b6a3edd4b1652cb9cc5aa6f81565b603c600354014211610cc55760405162461bcd60e51b815260040161046d906123fc565b600254610cf790610ceb69d3c21bcecceda100000064e8d4a5100063ffffffff61190c16565b9063ffffffff61194616565b60018190556103e81015610d0c576103e86001555b42600355610d1c60056000611dbd565b565b662386f26fc10000341015610d455760405162461bcd60e51b815260040161046d9061255b565b60055461010011610d685760405162461bcd60e51b815260040161046d90612726565b600754604051600591610d88913391349160009160ff169060200161215b565b60408051808303601f19018152919052805160209182012082546001810184556000938452919092206004820401805467ffffffffffffffff60039093166008026101000a928302191660c09390931c91909102919091179055565b610dec611179565b6000546001600160a01b03908116911614610e195760405162461bcd60e51b815260040161046d906126f1565b6001600160a01b038116610e71576001600160a01b038116600090815260046020526040808220549051339282156108fc02929190818181858888f19350505050158015610e6b573d6000803e3d6000fd5b50610faa565b604080516002808252606080830184529260208301908036833701905050905073c778417e063141139fce010982780140aa0cd5ab81600181518110610eb357fe5b60200260200101906001600160a01b031690816001600160a01b0316815250508181600081518110610ee157fe5b6001600160a01b0392831660209182029290920181019190915290831660009081526004918290526040908190205490516318cbafe560e01b8152737a250d5630b4cf539739df2c5dacb4c659f2488d926318cbafe592610f5192909160019187913391636551b60091016127fa565b600060405180830381600087803b158015610f6b57600080fd5b505af1158015610f7f573d6000803e3d6000fd5b505050506040513d6000823e601f3d908101601f19168201604052610fa79190810190611e4a565b50505b6001600160a01b0316600090815260046020526040812055565b73c7ad46e0b8a400bb3c915120d284aafba8fc473581565b603c81565b3360009081526006602052604081205481906110089064e8d4a5100063ffffffff61194616565b33600081815260066020526040808220919091555163a9059cbb60e01b8152919250734aacb7f0ba0a5cff9a8a5e8c0f24626ee9fda4a69163a9059cbb916110549185906004016122b9565b602060405180830381600087803b15801561106e57600080fd5b505af1158015611082573d6000803e3d6000fd5b505050506040513d601f19601f820116820180604052508101906110a69190611ee2565b505090565b6110b3611179565b6000546001600160a01b039081169116146110e05760405162461bcd60e51b815260040161046d906126f1565b6001600160a01b0381166111065760405162461bcd60e51b815260040161046d90612433565b600080546040516001600160a01b03808516939216917f8be0079c531659141344cd1fd0a4f28419497f9722a3daafe3b4186f6b6457e091a3600080547fffffffffffffffffffffffff0000000000000000000000000000000000000000166001600160a01b0392909216919091179055565b3390565b60608060008061118e8560006118dd565b60408051600280825260608201835292935091906020830190803683370190505092506111bc856001611988565b836000815181106111c957fe5b60200260200101906001600160a01b031690816001600160a01b0316815250506111f4856015611988565b8360018151811061120157fe5b60200260200101906001600160a01b031690816001600160a01b03168152505061122c8560296119a0565b91508060ff1667ffffffffffffffff8111801561124857600080fd5b5060405190808252806020026020018201604052801561128257816020015b61126f611de5565b8152602001906001900390816112675790505b509350602b60ff80831680830191601485021601820160005b8460ff168160ff16101561134c576112b38984611988565b888260ff16815181106112c257fe5b60209081029190910101516001600160a01b0390911690526112e489836119a8565b888260ff16815181106112f357fe5b6020026020010151602001818152505061130d89856118dd565b888260ff168151811061131c57fe5b60209081029190910181015160ff909216604090920191909152600194850194601494909401939201910161129b565b50505050509193909250565b60008282018381101561137d5760405162461bcd60e51b815260040161046d90612490565b90505b92915050565b604080516002808252606080830184526000939092919060208301908036833701905050905073c778417e063141139fce010982780140aa0cd5ab816000815181106113ce57fe5b60200260200101906001600160a01b031690816001600160a01b03168152505082816001815181106113fc57fe5b6001600160a01b0390921660209283029190910190910152600061143861a84761142c888863ffffffff61190c16565b9063ffffffff61190c16565b9050606061145b735c69bee701ef814a2b6a3edd4b1652cb9cc5aa6f83856119b0565b905060008160018151811061146c57fe5b60200260200101519050809450505050509392505050565b6000606073c778417e063141139fce010982780140aa0cd5ab6001600160a01b0316846000815181106114b357fe5b60200260200101516001600160a01b03161415611584576040517f7ff36ab5000000000000000000000000000000000000000000000000000000008152737a250d5630b4cf539739df2c5dacb4c659f2488d90637ff36ab59085906115279060019089903090636551b600906004016123b4565b6000604051808303818588803b15801561154057600080fd5b505af1158015611554573d6000803e3d6000fd5b50505050506040513d6000823e601f3d908101601f1916820160405261157d9190810190611e4a565b9050611716565b73c778417e063141139fce010982780140aa0cd5ab6001600160a01b0316846001815181106115af57fe5b60200260200101516001600160a01b03161415611660576040516318cbafe560e01b8152737a250d5630b4cf539739df2c5dacb4c659f2488d906318cbafe59061160a90869060019089903090636551b600906004016127fa565b600060405180830381600087803b15801561162457600080fd5b505af1158015611638573d6000803e3d6000fd5b505050506040513d6000823e601f3d908101601f1916820160405261157d9190810190611e4a565b6040517f38ed1739000000000000000000000000000000000000000000000000000000008152737a250d5630b4cf539739df2c5dacb4c659f2488d906338ed1739906116bd90869060019089903090636551b600906004016127fa565b600060405180830381600087803b1580156116d757600080fd5b505af11580156116eb573d6000803e3d6000fd5b505050506040513d6000823e601f3d908101601f191682016040526117139190810190611e4a565b90505b8060018151811061172357fe5b602002602001015191505092915050565b6000816117ff57600061175886610ceb878a6020015161190c90919063ffffffff16565b905061176a848263ffffffff61189b16565b875160405163a9059cbb60e01b815291955073c7ad46e0b8a400bb3c915120d284aafba8fc47359163a9059cbb916117a69185906004016122b9565b602060405180830381600087803b1580156117c057600080fd5b505af11580156117d4573d6000803e3d6000fd5b505050506040513d601f19601f820116820180604052508101906117f89190611ee2565b5050611891565b855160405163a9059cbb60e01b815273c7ad46e0b8a400bb3c915120d284aafba8fc47359163a9059cbb91611839919087906004016122b9565b602060405180830381600087803b15801561185357600080fd5b505af1158015611867573d6000803e3d6000fd5b505050506040513d601f19601f8201168201806040525081019061188b9190611ee2565b50600092505b5090949350505050565b600061137d83836040518060400160405280601e81526020017f536166654d6174683a207375627472616374696f6e206f766572666c6f770000815250611ac7565b600081600101835110156119035760405162461bcd60e51b815260040161046d90612592565b50016001015190565b60008261191b57506000611380565b8282028284828161192857fe5b041461137d5760405162461bcd60e51b815260040161046d9061265d565b600061137d83836040518060400160405280601a81526020017f536166654d6174683a206469766973696f6e206279207a65726f000000000000815250611af3565b01602001516c01000000000000000000000000900490565b016002015190565b016020015190565b60606002825110156119d45760405162461bcd60e51b815260040161046d906125c9565b815167ffffffffffffffff811180156119ec57600080fd5b50604051908082528060200260200182016040528015611a16578160200160208202803683370190505b5090508281600081518110611a2757fe5b60200260200101818152505060005b6001835103811015611abf57600080611a7987868581518110611a5557fe5b6020026020010151878660010181518110611a6c57fe5b6020026020010151611b2a565b91509150611a9b848481518110611a8c57fe5b60200260200101518383611c11565b848460010181518110611aaa57fe5b60209081029190910101525050600101611a36565b509392505050565b60008184841115611aeb5760405162461bcd60e51b815260040161046d91906123e9565b505050900390565b60008183611b145760405162461bcd60e51b815260040161046d91906123e9565b506000838581611b2057fe5b0495945050505050565b6000806000611b398585611cc3565b509050600080611b4a888888611d4d565b6001600160a01b0316630902f1ac6040518163ffffffff1660e01b815260040160606040518083038186803b158015611b8257600080fd5b505afa158015611b96573d6000803e3d6000fd5b505050506040513d601f19601f82011682018060405250810190611bba9190611ff2565b506dffffffffffffffffffffffffffff1691506dffffffffffffffffffffffffffff169150826001600160a01b0316876001600160a01b031614611bff578082611c02565b81815b90999098509650505050505050565b6000808411611c325760405162461bcd60e51b815260040161046d90612794565b600083118015611c425750600082115b611c5e5760405162461bcd60e51b815260040161046d90612600565b6000611c72856103e563ffffffff61190c16565b90506000611c86828563ffffffff61190c16565b90506000611cac83611ca0886103e863ffffffff61190c16565b9063ffffffff61135816565b9050808281611cb757fe5b04979650505050505050565b600080826001600160a01b0316846001600160a01b03161415611cf85760405162461bcd60e51b815260040161046d906124c7565b826001600160a01b0316846001600160a01b031610611d18578284611d1b565b83835b90925090506001600160a01b038216611d465760405162461bcd60e51b815260040161046d9061275d565b9250929050565b6000806000611d5c8585611cc3565b91509150858282604051602001611d749291906121b4565b60405160208183030381529060405280519060200120604051602001611d9b929190612237565b60408051601f1981840301815291905280516020909101209695505050505050565b508054600082556003016004900490600052602060002090810190611de29190611e05565b50565b604080516060810182526000808252602082018190529181019190915290565b610b3f91905b80821115611e1f5760008155600101611e0b565b5090565b600060208284031215611e34578081fd5b81356001600160a01b038116811461137d578182fd5b60006020808385031215611e5c578182fd5b825167ffffffffffffffff811115611e72578283fd5b80840185601f820112611e83578384fd5b80519150611e98611e938361286b565b612844565b8281528381019082850185850284018601891015611eb4578687fd5b8693505b84841015611ed6578051835260019390930192918501918501611eb8565b50979650505050505050565b600060208284031215611ef3578081fd5b815161137d8161288b565b60008060208385031215611f10578081fd5b823567ffffffffffffffff80821115611f27578283fd5b81850186601f820112611f38578384fd5b8035925081831115611f48578384fd5b866020848301011115611f59578384fd5b60200196919550909350505050565b60006020808385031215611f7a578182fd5b823567ffffffffffffffff80821115611f91578384fd5b81850186601f820112611fa2578485fd5b8035925081831115611fb2578485fd5b611fc4601f8401601f19168501612844565b91508282528684848301011115611fd9578485fd5b8284820185840137509081019091019190915292915050565b600080600060608486031215612006578081fd5b835161201181612899565b602085015190935061202281612899565b604085015190925063ffffffff8116811461203b578182fd5b809150509250925092565b600060208284031215612057578081fd5b5035919050565b600080600060608486031215612072578283fd5b8335925060208401359150604084013561203b8161288b565b815260200190565b6000815180845260208085019450808401835b838110156120cb5781516001600160a01b0316875295820195908201906001016120a6565b509495945050505050565b6000815180845260208085019450808401835b838110156120cb57815160ff16875295820195908201906001016120e9565b60008151808452815b8181101561212d57602081850181015186830182015201612111565b8181111561213e5782602083870101525b50601f01601f19169290920160200192915050565b61ffff169052565b60609490941b6bffffffffffffffffffffffff191684526014840192909252151560f890811b60348401521b7fff0000000000000000000000000000000000000000000000000000000000000016603582015260360190565b6bffffffffffffffffffffffff19606093841b811682529190921b16601482015260280190565b60609490941b6bffffffffffffffffffffffff19168452601484019290925260f890811b7fff00000000000000000000000000000000000000000000000000000000000000908116603485015291901b16603582015260360190565b7fff00000000000000000000000000000000000000000000000000000000000000815260609290921b6bffffffffffffffffffffffff1916600183015260158201527f96e8ac4277198ff8b6f785478aa9a39f403cb768dd02cbee326c3e7da348845f603582015260550190565b6001600160a01b0391909116815260200190565b6001600160a01b03929092168252602082015260400190565b7fffffffffffffffff00000000000000000000000000000000000000000000000091909116815260200190565b600060e0825261231260e083018a612108565b602060ff8a1681850152838203604085015261232e828a612093565b8481036060860152809250885161234581836127f1565b9350828a019150845b8181101561236f5761236185845161208b565b94509183019160010161234e565b50505050828103608084015261238581876120d6565b83810360a08501526123978187612093565b925050506123a860c0830184612153565b98975050505050505050565b6000858252608060208301526123cd6080830186612093565b6001600160a01b03949094166040830152506060015292915050565b60006020825261137d6020830184612108565b6020808252601a908201527f43757272656e74206379636c65206e6f742066696e6973686564000000000000604082015260600190565b60208082526026908201527f4f776e61626c653a206e6577206f776e657220697320746865207a65726f206160408201527f6464726573730000000000000000000000000000000000000000000000000000606082015260800190565b6020808252601b908201527f536166654d6174683a206164646974696f6e206f766572666c6f770000000000604082015260600190565b60208082526025908201527f556e697377617056324c6962726172793a204944454e544943414c5f4144445260408201527f4553534553000000000000000000000000000000000000000000000000000000606082015260800190565b6020808252600f908201527f536967206e6f74206d6174636865640000000000000000000000000000000000604082015260600190565b60208082526018908201527f4d696e696d756d20302e303120455448206465706f7369740000000000000000604082015260600190565b60208082526012908201527f52656164206f7574206f6620626f756e64730000000000000000000000000000604082015260600190565b6020808252601e908201527f556e697377617056324c6962726172793a20494e56414c49445f504154480000604082015260600190565b60208082526028908201527f556e697377617056324c6962726172793a20494e53554646494349454e545f4c60408201527f4951554944495459000000000000000000000000000000000000000000000000606082015260800190565b60208082526021908201527f536166654d6174683a206d756c7469706c69636174696f6e206f766572666c6f60408201527f7700000000000000000000000000000000000000000000000000000000000000606082015260800190565b60208082526014908201527f457863656564206d617820676173207072696365000000000000000000000000604082015260600190565b6020808252818101527f4f776e61626c653a2063616c6c6572206973206e6f7420746865206f776e6572604082015260600190565b6020808252601c908201527f457863656564206d6178206e756d626572206f66207472616465727300000000604082015260600190565b6020808252601e908201527f556e697377617056324c6962726172793a205a45524f5f414444524553530000604082015260600190565b6020808252602b908201527f556e697377617056324c6962726172793a20494e53554646494349454e545f4960408201527f4e5055545f414d4f554e54000000000000000000000000000000000000000000606082015260800190565b90815260200190565b600086825285602083015260a0604083015261281960a0830186612093565b6001600160a01b0394909416606083015250608001529392505050565b918252602082015260400190565b60405181810167ffffffffffffffff8111828210171561286357600080fd5b604052919050565b600067ffffffffffffffff821115612881578081fd5b5060209081020190565b8015158114611de257600080fd5b6dffffffffffffffffffffffffffff81168114611de257600080fdfea2646970667358221220e7fef22ebd200872eb6819f7a49c3b4288c83886ed7502500c9df130ccb04cd664736f6c63430006060033",
  "immutableReferences": {},
  "source": "pragma solidity ^0.6.6;\npragma experimental ABIEncoderV2;\n\nimport '@uniswap/v2-periphery/contracts/interfaces/IUniswapV2Router02.sol';\nimport '@uniswap/v2-periphery/contracts/interfaces/IERC20.sol';\nimport '@uniswap/v2-periphery/contracts/libraries/UniswapV2Library.sol';\nimport \"@openzeppelin/contracts/math/SafeMath.sol\";\nimport \"@openzeppelin/contracts/access/Ownable.sol\";\n\ncontract GasExpressPool is Ownable {\n    using SafeMath for uint256;\n\n    address public constant ROUTER_ADDR = 0x7a250d5630B4cF539739dF2C5dAcb4c659F2488D;\n    address public constant FACTORY_ADDR = 0x5C69bEe701ef814a2B6a3EDD4B1652CB9cc5aA6f;\n    address public constant WETH_ADDR = 0xc778417E063141139Fce010982780140Aa0cD5Ab;\n    address public constant DAI_ADDR = 0xc7AD46e0b8a400Bb3C915120d284AafbA8fc4735;\n    address public constant REWARD_TOKEN_ADDR = 0x4aacB7f0bA0A5CfF9A8a5e8C0F24626Ee9FDA4a6;\n\n    uint public constant CYCLE_LENGTH = 1 minutes;\n    uint public constant REWARD_PER_CYCLE = 1000000 * 1e18; // 1 million tokens per week;\n\n    // global var\n    uint public rewardPerShare = 100;\n    uint public totalSharesPerCycle;\n    uint public currentCycleStartingTime;\n    mapping(address => uint) public totalGas;\n    \n\n    bytes8[] public traderSig;\n    mapping(address => uint) public rewards;\n    uint8 nonce;\n\n    struct Trader {\n        address traderAddr;\n        uint value;\n        uint8 farming;\n    }\n\n    constructor () public {\n        currentCycleStartingTime = now;\n    }\n\n    function getPoolInfo() external view returns (uint, uint) {\n        return (address(this).balance, traderSig.length);\n    }\n\n    function deposit() external payable {\n        // must >= 0.01 eth\n        require(msg.value >= 10000000000000000, \"Minimum 0.01 ETH deposit\");\n        require(traderSig.length < 256, \"Exceed max number of traders\");\n        traderSig.push(bytes8(keccak256(abi.encodePacked(msg.sender, msg.value, false, nonce))));\n    }\n\n    function refund(uint idx, uint value, bool farming) external {\n        require(traderSig[idx] == bytes8(keccak256(abi.encodePacked(msg.sender, value, false, nonce))), \"Sig not matched\");\n        traderSig[idx] = bytes8(0);\n        msg.sender.transfer(value);\n    }\n\n    function redeemRewards() external returns (uint) {\n        uint rewardTokens = rewards[msg.sender].div(1e12);\n        rewards[msg.sender] = 0;\n        IERC20(REWARD_TOKEN_ADDR).transfer(msg.sender, rewardTokens);\n        //sushi.mint(devaddr, sushiReward.div(10))\n        // sushi.mint(address(this), sushiReward)\n    }\n\n    function getTraderData(bytes memory data) internal pure returns(Trader[] memory traders, address[] memory path, uint16 gasPrice) {\n        // exclude path and gasPrice\n        uint8 numTrader = toUint8(data, 0);\n    \n        path = new address[](2);\n        path[0] = toAddress(data, 1);\n        path[1] = toAddress(data, 21);\n\n        gasPrice = toUint16(data, 41);\n\n        traders = new Trader[](numTrader);\n\n        // unpack trader array\n        uint farmingStartAt = 43; \n        uint traderAddrStartAt = farmingStartAt + numTrader * 1;\n        uint valueStartAt = traderAddrStartAt + numTrader * 20;\n        /*\n        uint traderAddrStartAt = 43;\n        uint valueStartAt = traderAddrStartAt + numTrader * 20;\n        uint farmingStartAt = valueStartAt + numTrader * 32; \n        */\n\n        for(uint8 i = 0; i < numTrader; i++) {\n            traders[i].traderAddr = toAddress(data, traderAddrStartAt);\n            traders[i].value = toUint256(data, valueStartAt);\n            traders[i].farming = toUint8(data, farmingStartAt);\n\n            traderAddrStartAt += 20;\n            valueStartAt += 32;\n            farmingStartAt += 1;\n        }\n    }\n\n    function parseTraderData(bytes memory data) public returns (bytes memory, uint8, address[] memory, uint[] memory, uint8[] memory, address[] memory, uint16) {\n        uint8 numTrader = toUint8(data, 0);\n        (Trader[] memory traders, address[] memory path, uint16 gasPrice) = getTraderData(data);\n        address[] memory traderAddr = new address[](traders.length);\n        uint[] memory value = new uint[](traders.length);\n        uint8[] memory farming = new uint8[](traders.length);\n        for (uint i = 0; i< traders.length; i++) {\n            traderAddr[i] = traders[i].traderAddr;\n            value[i] = traders[i].value;\n            farming[i] = traders[i].farming;\n        }\n        return (data, numTrader, traderAddr, value, farming, path, gasPrice);\n    }\n\n    function toAddress(bytes memory _bytes, uint256 _start) internal pure returns (address) {\n        address tempAddress;\n\n        assembly {\n            tempAddress := div(mload(add(add(_bytes, 0x20), _start)), 0x1000000000000000000000000)\n        }\n\n        return tempAddress;\n    }\n\n    function toUint8(bytes memory _bytes, uint256 _start) internal pure returns (uint8) {\n        require(_bytes.length >= (_start + 1), \"Read out of bounds\");\n        uint8 tempUint;\n\n        assembly {\n            tempUint := mload(add(add(_bytes, 0x1), _start))\n        }\n\n        return tempUint;\n    }\n\n    function toUint256(bytes memory _bytes, uint256 _start) internal pure returns (uint256) {\n        uint256 tempUint;\n\n        assembly {\n            tempUint := mload(add(add(_bytes, 0x20), _start))\n        }\n\n        return tempUint;\n    }\n\n    function toUint16(bytes memory _bytes, uint256 _start) internal pure returns (uint16) {\n        uint16 tempUint;\n\n        assembly {\n            tempUint := mload(add(add(_bytes, 0x2), _start))\n        }\n\n        return tempUint;\n    }\n\n\n    function execute(bytes calldata data) external onlyOwner {\n        (Trader[] memory traders, address[] memory path, uint16 gasPrice) = getTraderData(data);\n\n        \n        // assure gasPrice is within normal range (<= 2000 gwei)\n        require(gasPrice <= 200000000000, \"Exceed max gas price\");\n        \n        uint totalVal = 0;\n        for(uint8 i = 0; i < traders.length; i++) {\n            // ignore cancelled trades\n            if (traderSig[i] == bytes8(0)) continue;\n\n            totalVal = totalVal.add(traders[i].value);\n        }\n\n        uint gasCostInOutputTokens = getGasCost(traders.length, gasPrice, path[1]);\n\n        // cumulate gas cost in input tokens\n        totalGas[path[0]] = totalGas[path[0]].add(gasCostInOutputTokens);\n\n        // execute swap\n        uint totalReceived = swap(path, totalVal);\n\n        // tracking remaining output balance as we\n        // distribute output tokens to traders\n        uint bal = totalReceived;\n\n        for(uint8 i = 0; i < traders.length; i++) {\n            // ignore cancelled trades\n            if (traderSig[i] == bytes8(0)) continue;\n\n            // verify sig\n            require(bytes8(keccak256(abi.encodePacked(traders[i].traderAddr, traders[i].value, traders[i].farming, nonce))) == traderSig[i], \"Sig not matched\");\n    \n            // distribute output tokens\n            bal = distribute(traders[i], totalVal, totalReceived, bal, i == traderSig.length - 1);\n\n            if (i == 0) {\n                // no gas cost for the first trader\n                totalReceived = bal.sub(gasCostInOutputTokens);\n                totalVal = totalVal.sub(traders[0].value);\n            }\n\n            /* if (traders[i].farming != uint8(0)) {\n                // yield farming\n                rewards[traders[i].traderAddr] = rewards[traders[i].traderAddr].add(rewardPerShare.mul(traders[i].value));\n                totalSharesPerCycle = totalSharesPerCycle.add(traders[i].value);\n            } */\n        }\n\n        // prepare for the next batch\n        delete traderSig;\n        nonce += 1;\n    }\n\n    function getGasCost(uint numTraders, uint gasPrice, address outputTokenAddr) internal view returns (uint) {\n        address[] memory gasPath = new address[](2);\n        gasPath[0] = WETH_ADDR;\n        gasPath[1] = outputTokenAddr;\n\n        // gasPerTrader * numTrader * gasPrice = gas cost in wei\n        // 43079 gas per trader on average\n        // minus gas fees\n        uint gasCost = numTraders.mul(gasPrice).mul(43079);\n        uint[] memory amountsOut = UniswapV2Library.getAmountsOut(FACTORY_ADDR, gasCost, gasPath);\n        uint gasCostInOutputTokens = amountsOut[1];\n        return gasCostInOutputTokens;\n    }\n\n    function swap(address[] memory path, uint totalVal) internal returns (uint) {\n        uint[] memory outputs;\n        if (path[0] == WETH_ADDR) {\n            // eth -> token\n            outputs = IUniswapV2Router02(ROUTER_ADDR).swapExactETHForTokens{value: totalVal}(1, path, address(this), 1699853824);\n        } else if (path[1] == WETH_ADDR) {\n            // token -> eth\n            outputs = IUniswapV2Router02(ROUTER_ADDR).swapExactTokensForETH(totalVal, 1, path, address(this), 1699853824);\n        } else {\n            // token -> token\n            outputs = IUniswapV2Router02(ROUTER_ADDR).swapExactTokensForTokens(totalVal, 1, path, address(this), 1699853824);\n        }\n        return outputs[1];\n    }\n\n    function distribute(Trader memory trader, uint totalVal, uint totalReceived, uint bal, bool isLast) internal returns(uint) {\n            if (!isLast) {\n                uint transferAmount = trader.value.mul(totalReceived).div(totalVal);\n                bal = bal.sub(transferAmount);\n                IERC20(DAI_ADDR).transfer(trader.traderAddr, transferAmount);\n            } else {\n                IERC20(DAI_ADDR).transfer(trader.traderAddr, bal);\n                bal = 0;\n            }\n\n            return bal;\n    }\n\n    function updateCycle() external {\n        require(now > currentCycleStartingTime + CYCLE_LENGTH, \"Current cycle not finished\"); \n\n        // update reward per share\n        rewardPerShare = REWARD_PER_CYCLE.mul(1e12).div(totalSharesPerCycle);\n        if (rewardPerShare > 1000) rewardPerShare = 1000;\n        \n        currentCycleStartingTime = now;\n        delete traderSig;\n    }\n\n    function withdrawGasFees(address tokenAddr) external onlyOwner {\n        if (tokenAddr == address(0x0)) {\n            msg.sender.transfer(totalGas[tokenAddr]);\n        } else {\n            address[] memory path = new address[](2);\n            path[1] = WETH_ADDR;\n            path[0] = tokenAddr;\n            IUniswapV2Router02(ROUTER_ADDR).swapExactTokensForETH(totalGas[tokenAddr], 1, path, msg.sender, 1699853824);\n        }\n        totalGas[tokenAddr] = 0;\n    }\n}\n",
  "sourcePath": "/home/hehe/projects/hack/Shuttle/contracts/GasExpressPool.sol",
  "compiler": {
    "name": "solc",
    "version": "0.6.6+commit.6c089d02.Emscripten.clang"
  },
  "schemaVersion": "3.2.5",
  "updatedAt": "2020-11-14T01:12:14.273Z",
  "networkType": "ethereum",
  "devdoc": {
    "methods": {
      "owner()": {
        "details": "Returns the address of the current owner."
      },
      "renounceOwnership()": {
        "details": "Leaves the contract without owner. It will not be possible to call `onlyOwner` functions anymore. Can only be called by the current owner.     * NOTE: Renouncing ownership will leave the contract without an owner, thereby removing any functionality that is only available to the owner."
      },
      "transferOwnership(address)": {
        "details": "Transfers ownership of the contract to a new account (`newOwner`). Can only be called by the current owner."
      }
    }
  },
  "userdoc": {
    "methods": {}
  }
}