{
  "contractName": "GasExpressPool",
  "abi": [
    {
      "inputs": [],
      "stateMutability": "nonpayable",
      "type": "constructor"
    },
    {
      "anonymous": false,
      "inputs": [
        {
          "indexed": true,
          "internalType": "address",
          "name": "previousOwner",
          "type": "address"
        },
        {
          "indexed": true,
          "internalType": "address",
          "name": "newOwner",
          "type": "address"
        }
      ],
      "name": "OwnershipTransferred",
      "type": "event"
    },
    {
      "inputs": [],
      "name": "CYCLE_LENGTH",
      "outputs": [
        {
          "internalType": "uint256",
          "name": "",
          "type": "uint256"
        }
      ],
      "stateMutability": "view",
      "type": "function",
      "constant": true
    },
    {
      "inputs": [],
      "name": "DAI_ADDR",
      "outputs": [
        {
          "internalType": "address",
          "name": "",
          "type": "address"
        }
      ],
      "stateMutability": "view",
      "type": "function",
      "constant": true
    },
    {
      "inputs": [],
      "name": "FACTORY_ADDR",
      "outputs": [
        {
          "internalType": "address",
          "name": "",
          "type": "address"
        }
      ],
      "stateMutability": "view",
      "type": "function",
      "constant": true
    },
    {
      "inputs": [],
      "name": "REWARD_PER_CYCLE",
      "outputs": [
        {
          "internalType": "uint256",
          "name": "",
          "type": "uint256"
        }
      ],
      "stateMutability": "view",
      "type": "function",
      "constant": true
    },
    {
      "inputs": [],
      "name": "REWARD_TOKEN_ADDR",
      "outputs": [
        {
          "internalType": "address",
          "name": "",
          "type": "address"
        }
      ],
      "stateMutability": "view",
      "type": "function",
      "constant": true
    },
    {
      "inputs": [],
      "name": "ROUTER_ADDR",
      "outputs": [
        {
          "internalType": "address",
          "name": "",
          "type": "address"
        }
      ],
      "stateMutability": "view",
      "type": "function",
      "constant": true
    },
    {
      "inputs": [],
      "name": "WETH_ADDR",
      "outputs": [
        {
          "internalType": "address",
          "name": "",
          "type": "address"
        }
      ],
      "stateMutability": "view",
      "type": "function",
      "constant": true
    },
    {
      "inputs": [],
      "name": "owner",
      "outputs": [
        {
          "internalType": "address",
          "name": "",
          "type": "address"
        }
      ],
      "stateMutability": "view",
      "type": "function",
      "constant": true
    },
    {
      "inputs": [
        {
          "internalType": "uint256",
          "name": "",
          "type": "uint256"
        }
      ],
      "name": "pools",
      "outputs": [
        {
          "internalType": "uint8",
          "name": "nonce",
          "type": "uint8"
        },
        {
          "internalType": "uint256",
          "name": "rewardPerShare",
          "type": "uint256"
        },
        {
          "internalType": "uint256",
          "name": "totalSharesPerCycle",
          "type": "uint256"
        },
        {
          "internalType": "uint256",
          "name": "currentCycleStartingTime",
          "type": "uint256"
        },
        {
          "internalType": "uint256",
          "name": "balance",
          "type": "uint256"
        }
      ],
      "stateMutability": "view",
      "type": "function",
      "constant": true
    },
    {
      "inputs": [],
      "name": "renounceOwnership",
      "outputs": [],
      "stateMutability": "nonpayable",
      "type": "function"
    },
    {
      "inputs": [
        {
          "internalType": "address",
          "name": "",
          "type": "address"
        }
      ],
      "name": "rewards",
      "outputs": [
        {
          "internalType": "uint256",
          "name": "",
          "type": "uint256"
        }
      ],
      "stateMutability": "view",
      "type": "function",
      "constant": true
    },
    {
      "inputs": [
        {
          "internalType": "address",
          "name": "",
          "type": "address"
        }
      ],
      "name": "totalGas",
      "outputs": [
        {
          "internalType": "uint256",
          "name": "",
          "type": "uint256"
        }
      ],
      "stateMutability": "view",
      "type": "function",
      "constant": true
    },
    {
      "inputs": [
        {
          "internalType": "address",
          "name": "newOwner",
          "type": "address"
        }
      ],
      "name": "transferOwnership",
      "outputs": [],
      "stateMutability": "nonpayable",
      "type": "function"
    },
    {
      "inputs": [
        {
          "internalType": "address",
          "name": "inputToken",
          "type": "address"
        },
        {
          "internalType": "address",
          "name": "outputToken",
          "type": "address"
        }
      ],
      "name": "addPool",
      "outputs": [],
      "stateMutability": "nonpayable",
      "type": "function"
    },
    {
      "inputs": [
        {
          "internalType": "uint8",
          "name": "poolId",
          "type": "uint8"
        }
      ],
      "name": "getPoolInfo",
      "outputs": [
        {
          "internalType": "uint256",
          "name": "",
          "type": "uint256"
        },
        {
          "internalType": "uint256",
          "name": "",
          "type": "uint256"
        }
      ],
      "stateMutability": "view",
      "type": "function",
      "constant": true
    },
    {
      "inputs": [
        {
          "internalType": "uint8",
          "name": "poolId",
          "type": "uint8"
        },
        {
          "internalType": "uint256",
          "name": "val",
          "type": "uint256"
        }
      ],
      "name": "deposit",
      "outputs": [],
      "stateMutability": "payable",
      "type": "function",
      "payable": true
    },
    {
      "inputs": [
        {
          "internalType": "uint8",
          "name": "poolId",
          "type": "uint8"
        },
        {
          "internalType": "uint256",
          "name": "idx",
          "type": "uint256"
        },
        {
          "internalType": "uint256",
          "name": "value",
          "type": "uint256"
        }
      ],
      "name": "refund",
      "outputs": [],
      "stateMutability": "nonpayable",
      "type": "function"
    },
    {
      "inputs": [],
      "name": "redeemRewards",
      "outputs": [
        {
          "internalType": "uint256",
          "name": "",
          "type": "uint256"
        }
      ],
      "stateMutability": "nonpayable",
      "type": "function"
    },
    {
      "inputs": [
        {
          "internalType": "bytes",
          "name": "data",
          "type": "bytes"
        }
      ],
      "name": "parseTraderData",
      "outputs": [
        {
          "internalType": "bytes",
          "name": "",
          "type": "bytes"
        },
        {
          "internalType": "uint8",
          "name": "",
          "type": "uint8"
        },
        {
          "internalType": "address[]",
          "name": "",
          "type": "address[]"
        },
        {
          "internalType": "uint256[]",
          "name": "",
          "type": "uint256[]"
        },
        {
          "internalType": "uint16",
          "name": "",
          "type": "uint16"
        }
      ],
      "stateMutability": "nonpayable",
      "type": "function"
    },
    {
      "inputs": [
        {
          "internalType": "uint8",
          "name": "poolId",
          "type": "uint8"
        },
        {
          "internalType": "bytes",
          "name": "data",
          "type": "bytes"
        }
      ],
      "name": "execute",
      "outputs": [],
      "stateMutability": "nonpayable",
      "type": "function"
    },
    {
      "inputs": [
        {
          "internalType": "uint8",
          "name": "poolId",
          "type": "uint8"
        }
      ],
      "name": "updateCycle",
      "outputs": [],
      "stateMutability": "nonpayable",
      "type": "function"
    },
    {
      "inputs": [
        {
          "internalType": "address",
          "name": "tokenAddr",
          "type": "address"
        }
      ],
      "name": "withdrawGasFees",
      "outputs": [],
      "stateMutability": "nonpayable",
      "type": "function"
    }
  ],
  "bytecode": "0x60806040523480156200001157600080fd5b506000620000276001600160e01b03620000b416565b600080546001600160a01b0319166001600160a01b0383169081178255604051929350917f8be0079c531659141344cd1fd0a4f28419497f9722a3daafe3b4186f6b6457e0908290a350620000ae73c778417e063141139fce010982780140aa0cd5ab73c7ad46e0b8a400bb3c915120d284aafba8fc47356001600160e01b03620000b916565b620003de565b335b90565b620000c362000231565b6040805160028082526060820183529091602083019080368337505050602082018190528051849190600090620000f657fe5b60200260200101906001600160a01b031690816001600160a01b0316815250508181602001516001815181106200012957fe5b6001600160a01b0390921660209283029190910182015260016040830181905260006060840181905260a084018190528084524260808501526002805492830181559052825160079091027f405787fa12a823e0f2b7631cc41b3ba8828b3321ca811111fa75cd3aa3bb5ace8101805460ff9390931660ff199093169290921782558383015180518594620001e3937f405787fa12a823e0f2b7631cc41b3ba8828b3321ca811111fa75cd3aa3bb5acf0192019062000271565b5060408201516002820155606082015160038201556080820151600482015560a0820151600582015560c0820151805162000229916006840191602090910190620002db565b505050505050565b6040518060e00160405280600060ff1681526020016060815260200160008152602001600081526020016000815260200160008152602001606081525090565b828054828255906000526020600020908101928215620002c9579160200282015b82811115620002c957825182546001600160a01b0319166001600160a01b0390911617825560209092019160019091019062000292565b50620002d792915062000390565b5090565b82805482825590600052602060002090600301600490048101928215620003825791602002820160005b838211156200034b57835183826101000a8154816001600160401b03021916908360c01c0217905550926020019260080160208160070104928301926001030262000305565b8015620003805782816101000a8154906001600160401b0302191690556008016020816007010492830192600103026200034b565b505b50620002d7929150620003b7565b620000b691905b80821115620002d75780546001600160a01b031916815560010162000397565b620000b691905b80821115620002d75780546001600160401b0319168155600101620003be565b612f7480620003ee6000396000f3fe6080604052600436106101755760003560e01c8063b13e6196116100cb578063eb511dd41161007f578063f2fde38b11610059578063f2fde38b146103c1578063f4d4c9d7146103e1578063fb4d364c146103f457610175565b8063eb511dd41461035e578063ebdaae4a1461037e578063f0fc4ec1146103ac57610175565b8063d6c1cead116100b0578063d6c1cead14610314578063d95393eb14610334578063dc75ba891461034957610175565b8063b13e6196146102df578063d6b457b9146102f457610175565b80637269b8d01161012d5780639c2cc24b116101075780639c2cc24b146102845780639cb3af4e14610299578063ac4afa38146102ae57610175565b80637269b8d01461023a57806382dfc5f71461025a5780638da5cb5b1461026f57610175565b80633edc7d851161015e5780633edc7d85146101d25780634c47c6cd14610203578063715018a61461022357610175565b80630700037d1461017a578063134d67e5146101b0575b600080fd5b34801561018657600080fd5b5061019a61019536600461255d565b610414565b6040516101a79190612e60565b60405180910390f35b3480156101bc57600080fd5b506101c5610426565b6040516101a791906129c1565b3480156101de57600080fd5b506101f26101ed366004612664565b61043e565b6040516101a7959493929190612a12565b34801561020f57600080fd5b5061019a61021e36600461255d565b61058e565b34801561022f57600080fd5b506102386105a0565b005b34801561024657600080fd5b5061023861025536600461281c565b610635565b34801561026657600080fd5b506101c5610854565b34801561027b57600080fd5b506101c561086c565b34801561029057600080fd5b506101c561087c565b3480156102a557600080fd5b5061019a610894565b3480156102ba57600080fd5b506102ce6102c9366004612742565b6108a2565b6040516101a7959493929190612eb3565b3480156102eb57600080fd5b506101c56108e4565b34801561030057600080fd5b5061023861030f36600461255d565b6108fc565b34801561032057600080fd5b5061023861032f36600461275a565b610adc565b34801561034057600080fd5b506101c5610b7b565b34801561035557600080fd5b5061019a610b93565b34801561036a57600080fd5b50610238610379366004612578565b610b98565b34801561038a57600080fd5b5061039e61039936600461275a565b610d08565b6040516101a7929190612ea5565b3480156103b857600080fd5b5061019a610d5b565b3480156103cd57600080fd5b506102386103dc36600461255d565b610e25565b6102386103ef3660046127f2565b610ee8565b34801561040057600080fd5b5061023861040f366004612775565b61110b565b60036020526000908152604090205481565b737a250d5630b4cf539739df2c5dacb4c659f2488d81565b60606000606080600080610453876000611804565b90506060600061046289611839565b915091506060825167ffffffffffffffff8111801561048057600080fd5b506040519080825280602002602001820160405280156104aa578160200160208202803683370190505b5090506060835167ffffffffffffffff811180156104c757600080fd5b506040519080825280602002602001820160405280156104f1578160200160208202803683370190505b50905060005b845181101561057b5784818151811061050c57fe5b60200260200101516000015183828151811061052457fe5b60200260200101906001600160a01b031690816001600160a01b03168152505084818151811061055057fe5b60200260200101516020015182828151811061056857fe5b60209081029190910101526001016104f7565b50999a9399909850965094509092505050565b60016020526000908152604090205481565b6105a8611947565b6000546001600160a01b039081169116146105de5760405162461bcd60e51b81526004016105d590612d97565b60405180910390fd5b600080546040516001600160a01b03909116907f8be0079c531659141344cd1fd0a4f28419497f9722a3daafe3b4186f6b6457e0908390a36000805473ffffffffffffffffffffffffffffffffffffffff19169055565b600060028460ff168154811061064757fe5b60009182526020918290206007909102018054604051919350610672923392869260ff1691016128dd565b604051602081830303815290604052805190602001206001600160c01b0319168160060184815481106106a157fe5b90600052602060002090600491828204019190066008029054906101000a900460c01b6001600160c01b031916146106eb5760405162461bcd60e51b81526004016105d590612c01565b600060c01b8160060184815481106106ff57fe5b90600052602060002090600491828204019190066008026101000a81548167ffffffffffffffff021916908360c01c021790555073c778417e063141139fce010982780140aa0cd5ab6001600160a01b03168160010160008154811061076157fe5b6000918252602090912001546001600160a01b031614156107af57604051339083156108fc029084906000818181858888f193505050501580156107a9573d6000803e3d6000fd5b5061084e565b806001016000815481106107bf57fe5b60009182526020909120015460405163a9059cbb60e01b81526001600160a01b039091169063a9059cbb906107fa90339086906004016129f9565b602060405180830381600087803b15801561081457600080fd5b505af1158015610828573d6000803e3d6000fd5b505050506040513d601f19601f8201168201806040525081019061084c9190612644565b505b50505050565b73c778417e063141139fce010982780140aa0cd5ab81565b6000546001600160a01b03165b90565b734aacb7f0ba0a5cff9a8a5e8c0f24626ee9fda4a681565b69d3c21bcecceda100000081565b600281815481106108af57fe5b60009182526020909120600790910201805460028201546003830154600484015460059094015460ff90931694509092909185565b735c69bee701ef814a2b6a3edd4b1652cb9cc5aa6f81565b610904611947565b6000546001600160a01b039081169116146109315760405162461bcd60e51b81526004016105d590612d97565b6001600160a01b038116610989576001600160a01b038116600090815260016020526040808220549051339282156108fc02929190818181858888f19350505050158015610983573d6000803e3d6000fd5b50610ac2565b604080516002808252606080830184529260208301908036833701905050905073c778417e063141139fce010982780140aa0cd5ab816001815181106109cb57fe5b60200260200101906001600160a01b031690816001600160a01b03168152505081816000815181106109f957fe5b6001600160a01b0392831660209182029290920181019190915290831660009081526001918290526040908190205490516318cbafe560e01b8152737a250d5630b4cf539739df2c5dacb4c659f2488d926318cbafe592610a699290919086903390636551b60090600401612e69565b600060405180830381600087803b158015610a8357600080fd5b505af1158015610a97573d6000803e3d6000fd5b505050506040513d6000823e601f3d908101601f19168201604052610abf91908101906125ac565b50505b6001600160a01b0316600090815260016020526040812055565b600060028260ff1681548110610aee57fe5b90600052602060002090600702019050603c8160040154014211610b245760405162461bcd60e51b81526004016105d590612ad9565b6003810154610b5890610b4c69d3c21bcecceda100000064e8d4a5100063ffffffff61194b16565b9063ffffffff61198c16565b600282018190556103e81015610b71576103e860028201555b4260049091015550565b73c7ad46e0b8a400bb3c915120d284aafba8fc473581565b603c81565b610ba061231b565b6040805160028082526060820183529091602083019080368337505050602082018190528051849190600090610bd257fe5b60200260200101906001600160a01b031690816001600160a01b031681525050818160200151600181518110610c0457fe5b6001600160a01b0390921660209283029190910182015260016040830181905260006060840181905260a084018190528084524260808501526002805492830181559052825160079091027f405787fa12a823e0f2b7631cc41b3ba8828b3321ca811111fa75cd3aa3bb5ace8101805460ff9390931660ff199093169290921782558383015180518594610cbc937f405787fa12a823e0f2b7631cc41b3ba8828b3321ca811111fa75cd3aa3bb5acf0192019061235b565b5060408201516002820155606082015160038201556080820151600482015560a0820151600582015560c08201518051610d009160068401916020909101906123cd565b505050505050565b60008060028360ff1681548110610d1b57fe5b90600052602060002090600702016005015460028460ff1681548110610d3d57fe5b90600052602060002090600702016006018054905091509150915091565b336000908152600360205260408120548190610d829064e8d4a5100063ffffffff61198c16565b33600081815260036020526040808220919091555163a9059cbb60e01b8152919250734aacb7f0ba0a5cff9a8a5e8c0f24626ee9fda4a69163a9059cbb91610dce9185906004016129f9565b602060405180830381600087803b158015610de857600080fd5b505af1158015610dfc573d6000803e3d6000fd5b505050506040513d601f19601f82011682018060405250810190610e209190612644565b505090565b610e2d611947565b6000546001600160a01b03908116911614610e5a5760405162461bcd60e51b81526004016105d590612d97565b6001600160a01b038116610e805760405162461bcd60e51b81526004016105d590612b10565b600080546040516001600160a01b03808516939216917f8be0079c531659141344cd1fd0a4f28419497f9722a3daafe3b4186f6b6457e091a36000805473ffffffffffffffffffffffffffffffffffffffff19166001600160a01b0392909216919091179055565b600060028360ff1681548110610efa57fe5b9060005260206000209060070201905073c778417e063141139fce010982780140aa0cd5ab6001600160a01b031681600101600081548110610f3857fe5b6000918252602090912001546001600160a01b03161415610fd25780546040516006830191610f73913391349160ff909116906020016128dd565b60408051808303601f19018152919052805160209182012082546001810184556000938452919092206004820401805467ffffffffffffffff60039093166008026101000a928302191660c09390931c91909102919091179055611106565b80600101600081548110610fe257fe5b6000918252602090912001546040517f23b872dd0000000000000000000000000000000000000000000000000000000081526001600160a01b03909116906323b872dd90611038903390309087906004016129d5565b602060405180830381600087803b15801561105257600080fd5b505af1158015611066573d6000803e3d6000fd5b505050506040513d601f19601f8201168201806040525081019061108a9190612644565b50805460405160068301916110ab913391869160ff909116906020016128dd565b60408051808303601f19018152919052805160209182012082546001810184556000938452919092206004820401805467ffffffffffffffff60039093166008026101000a928302191660c09390931c919091029190911790555b505050565b611113611947565b6000546001600160a01b039081169116146111405760405162461bcd60e51b81526004016105d590612d97565b6060600061118384848080601f01602080910402602001604051908101604052809392919081815260200183838082843760009201919091525061183992505050565b91509150600060028660ff168154811061119957fe5b6000918252602082206007909102019150805b84518110156112265760068301805460009190839081106111c957fe5b90600052602060002090600491828204019190066008029054906101000a900460c01b6001600160c01b03191614156112015761121e565b84818151811061120d57fe5b602002602001015160200151820191505b6001016111ac565b50642e90edd0008361ffff1611156112505760405162461bcd60e51b81526004016105d590612d60565b600061128685518561ffff168560010160018154811061126c57fe5b6000918252602090912001546001600160a01b03166119ce565b90506112d18160016000866001016001815481106112a057fe5b60009182526020808320909101546001600160a01b031683528201929092526040019020549063ffffffff611acc16565b60016000856001016001815481106112e557fe5b60009182526020808320909101546001600160a01b0316835282810193909352604091820181209390935560018601805482518185028101850190935280835261136d9383018282801561136257602002820191906000526020600020905b81546001600160a01b03168152600190910190602001808311611344575b505050505084611af1565b600685018054919250600091829061138157fe5b90600052602060002090600491828204019190066008029054906101000a900460c01b6001600160c01b031916146114fc57836006016000815481106113c357fe5b90600052602060002090600491828204019190066008029054906101000a900460c01b6001600160c01b031916866000815181106113fd57fe5b6020026020010151600001518760008151811061141657fe5b602090810291909101810151810151875460405161143b949360ff90921691016128dd565b604051602081830303815290604052805190602001206001600160c01b031916146114785760405162461bcd60e51b81526004016105d590612c01565b6114bc8660008151811061148857fe5b6020026020010151856001016001815481106114a057fe5b6000918252602090912001546001600160a01b03168584611da1565b6114cc818363ffffffff611ea416565b90506114f9866000815181106114de57fe5b60200260200101516020015184611ea490919063ffffffff16565b92505b60015b86518160ff161015611673576006850180546000919060ff841690811061152257fe5b90600052602060002090600491828204019190066008029054906101000a900460c01b6001600160c01b031916141561155a5761166b565b846006018160ff168154811061156c57fe5b90600052602060002090600491828204019190066008029054906101000a900460c01b6001600160c01b031916878260ff16815181106115a857fe5b602002602001015160000151888360ff16815181106115c357fe5b60209081029190910181015181015188546040516115e8949360ff90921691016128dd565b604051602081830303815290604052805190602001206001600160c01b031916146116255760405162461bcd60e51b81526004016105d590612c01565b61166b878260ff168151811061163757fe5b60200260200101518660010160018154811061164f57fe5b6000918252602090912001546001600160a01b03168685611da1565b6001016114ff565b5060005b86518160ff1610156117d6576006850180546000919060ff841690811061169a57fe5b90600052602060002090600491828204019190066008029054906101000a900460c01b6001600160c01b03191614156116d2576117ce565b611754611706888360ff16815181106116e757fe5b602002602001015160200151876002015461194b90919063ffffffff16565b600360008a8560ff168151811061171957fe5b6020026020010151600001516001600160a01b03166001600160a01b0316815260200190815260200160002054611acc90919063ffffffff16565b60036000898460ff168151811061176757fe5b6020026020010151600001516001600160a01b03166001600160a01b03168152602001908152602001600020819055506117c8878260ff16815181106117a957fe5b6020026020010151602001518660030154611acc90919063ffffffff16565b60038601555b600101611677565b506117e560068501600061247d565b5050815460ff8082166001011660ff1990911617909155505050505050565b6000816001018351101561182a5760405162461bcd60e51b81526004016105d590612c38565b50818101600101515b92915050565b6060600080611849846000611804565b9050611856846001611ee6565b91508060ff1667ffffffffffffffff8111801561187257600080fd5b506040519080825280602002602001820160405280156118ac57816020015b6118996124a5565b8152602001906001900390816118915790505b509250600360ff6014830216810160005b8360ff168160ff16101561193e576118d58784611eee565b868260ff16815181106118e457fe5b60209081029190910101516001600160a01b0390911690526119068783611f06565b868260ff168151811061191557fe5b6020026020010151602001818152505060148301925060208201915080806001019150506118bd565b50505050915091565b3390565b60008261195a57506000611833565b8282028284828161196757fe5b04146119855760405162461bcd60e51b81526004016105d590612d03565b9392505050565b600061198583836040518060400160405280601a81526020017f536166654d6174683a206469766973696f6e206279207a65726f000000000000815250611f0e565b604080516002808252606080830184526000939092919060208301908036833701905050905073c778417e063141139fce010982780140aa0cd5ab81600081518110611a1657fe5b60200260200101906001600160a01b031690816001600160a01b0316815250508281600181518110611a4457fe5b6001600160a01b03909216602092830291909101909101526000611a8061a847611a74888863ffffffff61194b16565b9063ffffffff61194b16565b90506060611aa3735c69bee701ef814a2b6a3edd4b1652cb9cc5aa6f8385611f45565b9050600081600181518110611ab457fe5b60200260200101519050809450505050509392505050565b6000828201838110156119855760405162461bcd60e51b81526004016105d590612b6d565b6000606073c778417e063141139fce010982780140aa0cd5ab6001600160a01b031684600081518110611b2057fe5b60200260200101516001600160a01b03161415611bf1576040517f7ff36ab5000000000000000000000000000000000000000000000000000000008152737a250d5630b4cf539739df2c5dacb4c659f2488d90637ff36ab5908590611b949060019089903090636551b60090600401612a91565b6000604051808303818588803b158015611bad57600080fd5b505af1158015611bc1573d6000803e3d6000fd5b50505050506040513d6000823e601f3d908101601f19168201604052611bea91908101906125ac565b9050611d83565b73c778417e063141139fce010982780140aa0cd5ab6001600160a01b031684600181518110611c1c57fe5b60200260200101516001600160a01b03161415611ccd576040516318cbafe560e01b8152737a250d5630b4cf539739df2c5dacb4c659f2488d906318cbafe590611c7790869060019089903090636551b60090600401612e69565b600060405180830381600087803b158015611c9157600080fd5b505af1158015611ca5573d6000803e3d6000fd5b505050506040513d6000823e601f3d908101601f19168201604052611bea91908101906125ac565b6040517f38ed1739000000000000000000000000000000000000000000000000000000008152737a250d5630b4cf539739df2c5dacb4c659f2488d906338ed173990611d2a90869060019089903090636551b60090600401612e69565b600060405180830381600087803b158015611d4457600080fd5b505af1158015611d58573d6000803e3d6000fd5b505050506040513d6000823e601f3d908101601f19168201604052611d8091908101906125ac565b90505b80600181518110611d9057fe5b602002602001015191505092915050565b6000611dbe83610b4c84886020015161194b90919063ffffffff16565b90506001600160a01b03841673c778417e063141139fce010982780140aa0cd5ab14611e6b57845160405163a9059cbb60e01b81526001600160a01b0386169163a9059cbb91611e13919085906004016129f9565b602060405180830381600087803b158015611e2d57600080fd5b505af1158015611e41573d6000803e3d6000fd5b505050506040513d601f19601f82011682018060405250810190611e659190612644565b5061084c565b84516040516001600160a01b039091169082156108fc029083906000818181858888f19350505050158015610d00573d6000803e3d6000fd5b600061198583836040518060400160405280601e81526020017f536166654d6174683a207375627472616374696f6e206f766572666c6f77000081525061205c565b016002015190565b01602001516c01000000000000000000000000900490565b016020015190565b60008183611f2f5760405162461bcd60e51b81526004016105d59190612ac6565b506000838581611f3b57fe5b0495945050505050565b6060600282511015611f695760405162461bcd60e51b81526004016105d590612c6f565b815167ffffffffffffffff81118015611f8157600080fd5b50604051908082528060200260200182016040528015611fab578160200160208202803683370190505b5090508281600081518110611fbc57fe5b60200260200101818152505060005b60018351038110156120545760008061200e87868581518110611fea57fe5b602002602001015187866001018151811061200157fe5b6020026020010151612088565b9150915061203084848151811061202157fe5b6020026020010151838361216f565b84846001018151811061203f57fe5b60209081029190910101525050600101611fcb565b509392505050565b600081848411156120805760405162461bcd60e51b81526004016105d59190612ac6565b505050900390565b60008060006120978585612221565b5090506000806120a88888886122ab565b6001600160a01b0316630902f1ac6040518163ffffffff1660e01b815260040160606040518083038186803b1580156120e057600080fd5b505afa1580156120f4573d6000803e3d6000fd5b505050506040513d601f19601f8201168201806040525081019061211891906126ee565b506dffffffffffffffffffffffffffff1691506dffffffffffffffffffffffffffff169150826001600160a01b0316876001600160a01b03161461215d578082612160565b81815b90999098509650505050505050565b60008084116121905760405162461bcd60e51b81526004016105d590612e03565b6000831180156121a05750600082115b6121bc5760405162461bcd60e51b81526004016105d590612ca6565b60006121d0856103e563ffffffff61194b16565b905060006121e4828563ffffffff61194b16565b9050600061220a836121fe886103e863ffffffff61194b16565b9063ffffffff611acc16565b905080828161221557fe5b04979650505050505050565b600080826001600160a01b0316846001600160a01b031614156122565760405162461bcd60e51b81526004016105d590612ba4565b826001600160a01b0316846001600160a01b031610612276578284612279565b83835b90925090506001600160a01b0382166122a45760405162461bcd60e51b81526004016105d590612dcc565b9250929050565b60008060006122ba8585612221565b915091508582826040516020016122d292919061292c565b604051602081830303815290604052805190602001206040516020016122f9929190612953565b60408051601f1981840301815291905280516020909101209695505050505050565b6040518060e00160405280600060ff1681526020016060815260200160008152602001600081526020016000815260200160008152602001606081525090565b8280548282559060005260206000209081019282156123bd579160200282015b828111156123bd578251825473ffffffffffffffffffffffffffffffffffffffff19166001600160a01b0390911617825560209092019160019091019061237b565b506123c99291506124c5565b5090565b828054828255906000526020600020906003016004900481019282156124715791602002820160005b8382111561243b57835183826101000a81548167ffffffffffffffff021916908360c01c021790555092602001926008016020816007010492830192600103026123f6565b801561246f5782816101000a81549067ffffffffffffffff021916905560080160208160070104928301926001030261243b565b505b506123c99291506124f6565b5080546000825560030160049004906000526020600020908101906124a2919061251b565b50565b604080516060810182526000808252602082018190529181019190915290565b61087991905b808211156123c957805473ffffffffffffffffffffffffffffffffffffffff191681556001016124cb565b61087991905b808211156123c957805467ffffffffffffffff191681556001016124fc565b61087991905b808211156123c95760008155600101612521565b80356001600160a01b038116811461183357600080fd5b803560ff8116811461183357600080fd5b60006020828403121561256e578081fd5b6119858383612535565b6000806040838503121561258a578081fd5b6125948484612535565b91506125a38460208501612535565b90509250929050565b600060208083850312156125be578182fd5b825167ffffffffffffffff8111156125d4578283fd5b80840185601f8201126125e5578384fd5b805191506125fa6125f583612f02565b612edb565b8281528381019082850185850284018601891015612616578687fd5b8693505b8484101561263857805183526001939093019291850191850161261a565b50979650505050505050565b600060208284031215612655578081fd5b81518015158114611985578182fd5b60006020808385031215612676578182fd5b823567ffffffffffffffff8082111561268d578384fd5b81850186601f82011261269e578485fd5b80359250818311156126ae578485fd5b6126c0601f8401601f19168501612edb565b915082825286848483010111156126d5578485fd5b8284820185840137509081019091019190915292915050565b600080600060608486031215612702578081fd5b835161270d81612f22565b602085015190935061271e81612f22565b604085015190925063ffffffff81168114612737578182fd5b809150509250925092565b600060208284031215612753578081fd5b5035919050565b60006020828403121561276b578081fd5b611985838361254c565b600080600060408486031215612789578283fd5b612793858561254c565b9250602084013567ffffffffffffffff808211156127af578384fd5b81860187601f8201126127c0578485fd5b80359250818311156127d0578485fd5b8760208483010111156127e1578485fd5b949760209095019650909450505050565b60008060408385031215612804578182fd5b61280e848461254c565b946020939093013593505050565b600080600060608486031215612830578283fd5b61283a858561254c565b95602085013595506040909401359392505050565b6000815180845260208085019450808401835b838110156128875781516001600160a01b031687529582019590820190600101612862565b509495945050505050565b60008151808452815b818110156128b75760208185018101518683018201520161289b565b818111156128c85782602083870101525b50601f01601f19169290920160200192915050565b60609390931b6bffffffffffffffffffffffff19168352601483019190915260f81b7fff0000000000000000000000000000000000000000000000000000000000000016603482015260350190565b6bffffffffffffffffffffffff19606093841b811682529190921b16601482015260280190565b7fff00000000000000000000000000000000000000000000000000000000000000815260609290921b6bffffffffffffffffffffffff1916600183015260158201527f96e8ac4277198ff8b6f785478aa9a39f403cb768dd02cbee326c3e7da348845f603582015260550190565b6001600160a01b0391909116815260200190565b6001600160a01b039384168152919092166020820152604081019190915260600190565b6001600160a01b03929092168252602082015260400190565b600060a08252612a2560a0830188612892565b602060ff8816818501528382036040850152612a41828861284f565b84810360608601528651808252908201925081870190845b81811015612a7557825185529383019391830191600101612a59565b505050508091505061ffff831660808301529695505050505050565b600085825260806020830152612aaa608083018661284f565b6001600160a01b03949094166040830152506060015292915050565b6000602082526119856020830184612892565b6020808252601a908201527f43757272656e74206379636c65206e6f742066696e6973686564000000000000604082015260600190565b60208082526026908201527f4f776e61626c653a206e6577206f776e657220697320746865207a65726f206160408201527f6464726573730000000000000000000000000000000000000000000000000000606082015260800190565b6020808252601b908201527f536166654d6174683a206164646974696f6e206f766572666c6f770000000000604082015260600190565b60208082526025908201527f556e697377617056324c6962726172793a204944454e544943414c5f4144445260408201527f4553534553000000000000000000000000000000000000000000000000000000606082015260800190565b6020808252600f908201527f536967206e6f74206d6174636865640000000000000000000000000000000000604082015260600190565b60208082526012908201527f52656164206f7574206f6620626f756e64730000000000000000000000000000604082015260600190565b6020808252601e908201527f556e697377617056324c6962726172793a20494e56414c49445f504154480000604082015260600190565b60208082526028908201527f556e697377617056324c6962726172793a20494e53554646494349454e545f4c60408201527f4951554944495459000000000000000000000000000000000000000000000000606082015260800190565b60208082526021908201527f536166654d6174683a206d756c7469706c69636174696f6e206f766572666c6f60408201527f7700000000000000000000000000000000000000000000000000000000000000606082015260800190565b60208082526014908201527f457863656564206d617820676173207072696365000000000000000000000000604082015260600190565b6020808252818101527f4f776e61626c653a2063616c6c6572206973206e6f7420746865206f776e6572604082015260600190565b6020808252601e908201527f556e697377617056324c6962726172793a205a45524f5f414444524553530000604082015260600190565b6020808252602b908201527f556e697377617056324c6962726172793a20494e53554646494349454e545f4960408201527f4e5055545f414d4f554e54000000000000000000000000000000000000000000606082015260800190565b90815260200190565b600086825285602083015260a06040830152612e8860a083018661284f565b6001600160a01b0394909416606083015250608001529392505050565b918252602082015260400190565b60ff959095168552602085019390935260408401919091526060830152608082015260a00190565b60405181810167ffffffffffffffff81118282101715612efa57600080fd5b604052919050565b600067ffffffffffffffff821115612f18578081fd5b5060209081020190565b6dffffffffffffffffffffffffffff811681146124a257600080fdfea2646970667358221220a9fa2fcdfa553a80877f5441d258904fa5642f20afa002c857364487b618819764736f6c63430006060033",
  "immutableReferences": {},
  "source": "pragma solidity ^0.6.6;\npragma experimental ABIEncoderV2;\n\nimport '@uniswap/v2-periphery/contracts/interfaces/IUniswapV2Router02.sol';\nimport '@uniswap/v2-periphery/contracts/interfaces/IERC20.sol';\nimport '@uniswap/v2-periphery/contracts/libraries/UniswapV2Library.sol';\nimport \"@openzeppelin/contracts/access/Ownable.sol\";\n\nlibrary SafeMath2 {\n    /**\n     * @dev Returns the addition of two unsigned integers, reverting on\n     * overflow.\n     *\n     * Counterpart to Solidity's `+` operator.\n     *\n     * Requirements:\n     *\n     * - Addition cannot overflow.\n     */\n    function add(uint256 a, uint256 b) internal pure returns (uint256) {\n        uint256 c = a + b;\n        require(c >= a, \"SafeMath: addition overflow\");\n\n        return c;\n    }\n\n    /**\n     * @dev Returns the subtraction of two unsigned integers, reverting on\n     * overflow (when the result is negative).\n     *\n     * Counterpart to Solidity's `-` operator.\n     *\n     * Requirements:\n     *\n     * - Subtraction cannot overflow.\n     */\n    function sub(uint256 a, uint256 b) internal pure returns (uint256) {\n        return sub(a, b, \"SafeMath: subtraction overflow\");\n    }\n\n    /**\n     * @dev Returns the subtraction of two unsigned integers, reverting with custom message on\n     * overflow (when the result is negative).\n     *\n     * Counterpart to Solidity's `-` operator.\n     *\n     * Requirements:\n     *\n     * - Subtraction cannot overflow.\n     */\n    function sub(uint256 a, uint256 b, string memory errorMessage) internal pure returns (uint256) {\n        require(b <= a, errorMessage);\n        uint256 c = a - b;\n\n        return c;\n    }\n\n    /**\n     * @dev Returns the multiplication of two unsigned integers, reverting on\n     * overflow.\n     *\n     * Counterpart to Solidity's `*` operator.\n     *\n     * Requirements:\n     *\n     * - Multiplication cannot overflow.\n     */\n    function mul(uint256 a, uint256 b) internal pure returns (uint256) {\n        // Gas optimization: this is cheaper than requiring 'a' not being zero, but the\n        // benefit is lost if 'b' is also tested.\n        // See: https://github.com/OpenZeppelin/openzeppelin-contracts/pull/522\n        if (a == 0) {\n            return 0;\n        }\n\n        uint256 c = a * b;\n        require(c / a == b, \"SafeMath: multiplication overflow\");\n\n        return c;\n    }\n\n    /**\n     * @dev Returns the integer division of two unsigned integers. Reverts on\n     * division by zero. The result is rounded towards zero.\n     *\n     * Counterpart to Solidity's `/` operator. Note: this function uses a\n     * `revert` opcode (which leaves remaining gas untouched) while Solidity\n     * uses an invalid opcode to revert (consuming all remaining gas).\n     *\n     * Requirements:\n     *\n     * - The divisor cannot be zero.\n     */\n    function div(uint256 a, uint256 b) internal pure returns (uint256) {\n        return div(a, b, \"SafeMath: division by zero\");\n    }\n\n    /**\n     * @dev Returns the integer division of two unsigned integers. Reverts with custom message on\n     * division by zero. The result is rounded towards zero.\n     *\n     * Counterpart to Solidity's `/` operator. Note: this function uses a\n     * `revert` opcode (which leaves remaining gas untouched) while Solidity\n     * uses an invalid opcode to revert (consuming all remaining gas).\n     *\n     * Requirements:\n     *\n     * - The divisor cannot be zero.\n     */\n    function div(uint256 a, uint256 b, string memory errorMessage) internal pure returns (uint256) {\n        require(b > 0, errorMessage);\n        uint256 c = a / b;\n        // assert(a == b * c + a % b); // There is no case in which this doesn't hold\n\n        return c;\n    }\n\n    /**\n     * @dev Returns the remainder of dividing two unsigned integers. (unsigned integer modulo),\n     * Reverts when dividing by zero.\n     *\n     * Counterpart to Solidity's `%` operator. This function uses a `revert`\n     * opcode (which leaves remaining gas untouched) while Solidity uses an\n     * invalid opcode to revert (consuming all remaining gas).\n     *\n     * Requirements:\n     *\n     * - The divisor cannot be zero.\n     */\n    function mod(uint256 a, uint256 b) internal pure returns (uint256) {\n        return mod(a, b, \"SafeMath: modulo by zero\");\n    }\n\n    /**\n     * @dev Returns the remainder of dividing two unsigned integers. (unsigned integer modulo),\n     * Reverts with custom message when dividing by zero.\n     *\n     * Counterpart to Solidity's `%` operator. This function uses a `revert`\n     * opcode (which leaves remaining gas untouched) while Solidity uses an\n     * invalid opcode to revert (consuming all remaining gas).\n     *\n     * Requirements:\n     *\n     * - The divisor cannot be zero.\n     */\n    function mod(uint256 a, uint256 b, string memory errorMessage) internal pure returns (uint256) {\n        require(b != 0, errorMessage);\n        return a % b;\n    }\n}\n\ncontract GasExpressPool is Ownable {\n    using SafeMath2 for uint256;\n\n    address public constant ROUTER_ADDR = 0x7a250d5630B4cF539739dF2C5dAcb4c659F2488D;\n    address public constant FACTORY_ADDR = 0x5C69bEe701ef814a2B6a3EDD4B1652CB9cc5aA6f;\n    address public constant WETH_ADDR = 0xc778417E063141139Fce010982780140Aa0cD5Ab;\n    address public constant DAI_ADDR = 0xc7AD46e0b8a400Bb3C915120d284AafbA8fc4735;\n    address public constant REWARD_TOKEN_ADDR = 0x4aacB7f0bA0A5CfF9A8a5e8C0F24626Ee9FDA4a6;\n\n    uint public constant CYCLE_LENGTH = 1 minutes;\n    uint public constant REWARD_PER_CYCLE = 1000000 * 1e18; // 1 million tokens per week;\n\n    struct Pool {\n        uint8 nonce;\n        address[] path;\n        uint rewardPerShare;\n        uint totalSharesPerCycle;\n        uint currentCycleStartingTime;\n        uint balance;\n        bytes8[] traderSig;\n    }\n\n    mapping(address => uint) public totalGas;\n    Pool[] public pools;\n\n    mapping(address => uint) public rewards;\n    \n\n    struct Trader {\n        address traderAddr;\n        uint value;\n        uint8 farming;\n    }\n\n    constructor () public {\n        addPool(WETH_ADDR, DAI_ADDR);\n    }\n\n    function addPool(address inputToken, address outputToken) public {\n        Pool memory p;\n        \n        p.path = new address[](2);\n        p.path[0] = inputToken;\n        p.path[1] = outputToken;\n\n        p.rewardPerShare = 1;\n        p.totalSharesPerCycle = 0;\n        p.balance = 0;\n        p.nonce = 0;\n        p.currentCycleStartingTime = now;\n        pools.push(p);\n    }\n\n    function getPoolInfo(uint8 poolId) external view returns (uint, uint) {\n        return (pools[poolId].balance, pools[poolId].traderSig.length);\n    }\n\n    function deposit(uint8 poolId, uint val) external payable {\n        // must >= 0.01 eth\n        //require(msg.value >= 10000000000000000, \"Minimum 0.01 ETH deposit\");\n        //require(traderSig.length < 256, \"Exceed max number of traders\");\n        Pool storage pool = pools[poolId];\n        if(pool.path[0] == WETH_ADDR) {\n            pool.traderSig.push(bytes8(keccak256(abi.encodePacked(msg.sender, msg.value, pool.nonce))));\n        } else {\n            // deposit erc20 token\n            IERC20(pool.path[0]).transferFrom(msg.sender, address(this), val);\n            pool.traderSig.push(bytes8(keccak256(abi.encodePacked(msg.sender, val, pool.nonce))));\n        }\n    }\n\n    function refund(uint8 poolId, uint idx, uint value) external {\n        Pool storage pool = pools[poolId];\n        require(pool.traderSig[idx] == bytes8(keccak256(abi.encodePacked(msg.sender, value, pool.nonce))), \"Sig not matched\");\n        pool.traderSig[idx] = bytes8(0);\n        if(pool.path[0] == WETH_ADDR) {\n            msg.sender.transfer(value);\n        } else {\n            // erc20 token\n            IERC20(pool.path[0]).transfer(msg.sender, value);\n        }\n    }\n\n    function redeemRewards() external returns (uint) {\n        uint rewardTokens = rewards[msg.sender].div(1e12);\n        rewards[msg.sender] = 0;\n        IERC20(REWARD_TOKEN_ADDR).transfer(msg.sender, rewardTokens);\n    }\n\n    function getTraderData(bytes memory data) internal pure returns(Trader[] memory traders, uint16 gasPrice) {\n        // exclude path and gasPrice\n        uint8 numTrader = toUint8(data, 0);\n\n        gasPrice = toUint16(data, 1);\n\n        traders = new Trader[](numTrader);\n\n        // unpack trader array\n        uint traderAddrStartAt = 3;\n        uint valueStartAt = traderAddrStartAt + numTrader * 20;\n\n\n        for(uint8 i = 0; i < numTrader; i++) {\n            traders[i].traderAddr = toAddress(data, traderAddrStartAt);\n            traders[i].value = toUint256(data, valueStartAt);\n\n            traderAddrStartAt += 20;\n            valueStartAt += 32;\n        }\n    }\n\n    function parseTraderData(bytes memory data) public returns (bytes memory, uint8, address[] memory, uint[] memory, uint16) {\n        uint8 numTrader = toUint8(data, 0);\n        (Trader[] memory traders, uint16 gasPrice) = getTraderData(data);\n        address[] memory traderAddr = new address[](traders.length);\n        uint[] memory value = new uint[](traders.length);\n        for (uint i = 0; i< traders.length; i++) {\n            traderAddr[i] = traders[i].traderAddr;\n            value[i] = traders[i].value;\n        }\n        return (data, numTrader, traderAddr, value, gasPrice);\n    }\n\n    function toAddress(bytes memory _bytes, uint256 _start) internal pure returns (address) {\n        address tempAddress;\n\n        assembly {\n            tempAddress := div(mload(add(add(_bytes, 0x20), _start)), 0x1000000000000000000000000)\n        }\n\n        return tempAddress;\n    }\n\n    function toUint8(bytes memory _bytes, uint256 _start) internal pure returns (uint8) {\n        require(_bytes.length >= (_start + 1), \"Read out of bounds\");\n        uint8 tempUint;\n\n        assembly {\n            tempUint := mload(add(add(_bytes, 0x1), _start))\n        }\n\n        return tempUint;\n    }\n\n    function toUint256(bytes memory _bytes, uint256 _start) internal pure returns (uint256) {\n        uint256 tempUint;\n\n        assembly {\n            tempUint := mload(add(add(_bytes, 0x20), _start))\n        }\n\n        return tempUint;\n    }\n\n    function toUint16(bytes memory _bytes, uint256 _start) internal pure returns (uint16) {\n        uint16 tempUint;\n\n        assembly {\n            tempUint := mload(add(add(_bytes, 0x2), _start))\n        }\n\n        return tempUint;\n    }\n\n\n    function execute(uint8 poolId, bytes calldata data) external onlyOwner {\n        (Trader[] memory traders,  uint16 gasPrice) = getTraderData(data);\n        Pool storage pool = pools[poolId];\n\n        uint poolBal = 0;\n        for(uint i = 0; i < traders.length; i++) {\n            if (pool.traderSig[i] == bytes8(0)) continue;\n            poolBal += traders[i].value;\n        }\n        \n        // assure gasPrice is within normal range (<= 2000 gwei)\n        require(gasPrice <= 200000000000, \"Exceed max gas price\");\n        \n        uint gasCostInOutputTokens = getGasCost(traders.length, gasPrice, pool.path[1]);\n\n        // cumulate gas cost in output tokens\n        totalGas[pool.path[1]] = totalGas[pool.path[1]].add(gasCostInOutputTokens);\n\n        // execute swap\n        uint totalReceived = swap(pool.path, poolBal);\n\n        // distribute to first trader with gas reimbursement\n        if (pool.traderSig[0] != bytes8(0)) {\n            require(bytes8(keccak256(abi.encodePacked(traders[0].traderAddr, traders[0].value, pool.nonce))) == pool.traderSig[0], \"Sig not matched\");\n            distribute(traders[0], pool.path[1], poolBal, totalReceived);\n            totalReceived = totalReceived.sub(gasCostInOutputTokens);\n            poolBal = poolBal.sub(traders[0].value);\n        }\n\n        // distribute to the rest\n        for(uint8 i = 1; i < traders.length; i++) {\n            // ignore cancelled trades\n            if (pool.traderSig[i] == bytes8(0)) continue;\n\n            // verify sig\n            require(bytes8(keccak256(abi.encodePacked(traders[i].traderAddr, traders[i].value, pool.nonce))) == pool.traderSig[i], \"Sig not matched\");\n    \n            // distribute output tokens\n            distribute(traders[i], pool.path[1], poolBal, totalReceived);\n        }\n\n        // farming\n        for(uint8 i = 0; i < traders.length; i++) {\n            // ignore cancelled trades\n            if (pool.traderSig[i] == bytes8(0)) continue;\n            rewards[traders[i].traderAddr] = rewards[traders[i].traderAddr].add(pool.rewardPerShare.mul(traders[i].value));\n            pool.totalSharesPerCycle = pool.totalSharesPerCycle.add(traders[i].value);\n        }\n\n\n        // prepare for the next batch\n        delete pool.traderSig;\n        pool.nonce += 1;\n    }\n\n    function getGasCost(uint numTraders, uint gasPrice, address outputTokenAddr) internal view returns (uint) {\n        address[] memory gasPath = new address[](2);\n        gasPath[0] = WETH_ADDR;\n        gasPath[1] = outputTokenAddr;\n\n        // gasPerTrader * numTrader * gasPrice = gas cost in wei\n        // 43079 gas per trader on average\n        // minus gas fees\n        uint gasCost = numTraders.mul(gasPrice).mul(43079);\n        uint[] memory amountsOut = UniswapV2Library.getAmountsOut(FACTORY_ADDR, gasCost, gasPath);\n        uint gasCostInOutputTokens = amountsOut[1];\n        return gasCostInOutputTokens;\n    }\n\n    function swap(address[] memory path, uint totalVal) internal returns (uint) {\n        uint[] memory outputs;\n        if (path[0] == WETH_ADDR) {\n            // eth -> token\n            outputs = IUniswapV2Router02(ROUTER_ADDR).swapExactETHForTokens{value: totalVal}(1, path, address(this), 1699853824);\n        } else if (path[1] == WETH_ADDR) {\n            // token -> eth\n            outputs = IUniswapV2Router02(ROUTER_ADDR).swapExactTokensForETH(totalVal, 1, path, address(this), 1699853824);\n        } else {\n            // token -> token\n            outputs = IUniswapV2Router02(ROUTER_ADDR).swapExactTokensForTokens(totalVal, 1, path, address(this), 1699853824);\n        }\n        return outputs[1];\n    }\n\n    function distribute(Trader memory trader, address outputToken, uint totalVal, uint totalReceived) internal {\n            uint transferAmount = trader.value.mul(totalReceived).div(totalVal);\n            if(outputToken != WETH_ADDR) {\n                IERC20(outputToken).transfer(trader.traderAddr, transferAmount);\n            } else {\n                payable(trader.traderAddr).transfer(transferAmount);\n            }\n    }\n\n    function updateCycle(uint8 poolId) external {\n        Pool storage pool = pools[poolId];\n        require(now > pool.currentCycleStartingTime + CYCLE_LENGTH, \"Current cycle not finished\"); \n\n        // update reward per share\n        pool.rewardPerShare = REWARD_PER_CYCLE.mul(1e12).div(pool.totalSharesPerCycle);\n        if (pool.rewardPerShare > 1000) pool.rewardPerShare = 1000;\n        \n        pool.currentCycleStartingTime = now;\n    }\n\n    function withdrawGasFees(address tokenAddr) external onlyOwner {\n        if (tokenAddr == address(0x0)) {\n            msg.sender.transfer(totalGas[tokenAddr]);\n        } else {\n            address[] memory path = new address[](2);\n            path[1] = WETH_ADDR;\n            path[0] = tokenAddr;\n            IUniswapV2Router02(ROUTER_ADDR).swapExactTokensForETH(totalGas[tokenAddr], 1, path, msg.sender, 1699853824);\n        }\n        totalGas[tokenAddr] = 0;\n    }\n}\n",
  "sourcePath": "/home/hehe/projects/hack/Shuttle/contracts/GasExpressPool.sol",
  "compiler": {
    "name": "solc",
    "version": "0.6.6+commit.6c089d02.Emscripten.clang"
  },
  "schemaVersion": "3.2.5",
  "updatedAt": "2020-11-25T00:04:21.726Z",
  "networkType": "ethereum",
  "devdoc": {
    "methods": {
      "owner()": {
        "details": "Returns the address of the current owner."
      },
      "renounceOwnership()": {
        "details": "Leaves the contract without owner. It will not be possible to call `onlyOwner` functions anymore. Can only be called by the current owner.     * NOTE: Renouncing ownership will leave the contract without an owner, thereby removing any functionality that is only available to the owner."
      },
      "transferOwnership(address)": {
        "details": "Transfers ownership of the contract to a new account (`newOwner`). Can only be called by the current owner."
      }
    }
  },
  "userdoc": {
    "methods": {}
  }
}